:10400000FC7F0020791601005186000061860000C7
:1040100000000000000000000000000000000000A0
:104020000000000000000000000000006116010018
:10403000000000000000000061160100CD16010024
:104040006116010061160100611601006116010090
:104050006116010061160100A182000065160100D1
:1040600061160100ADFA0000611601006116010041
:104070006116010061160100BDFA00006116010021
:104080006116010061160100611601006116010050
:10409000EDF70000611601006116010061160100D4
:1040A0006116010061160100611601006116010030
:1040B0000000000010B5064C2378002B07D1054BFB
:1040C000002B02D0044800E000BF0123237010BD84
:1040D000D0020020000000003084010008B5084B29
:1040E000002B03D00748084900E000BF07480368D9
:1040F000002B03D0064B002B00D0984708BDC046CC
:104100000000000030840100D4020020C80200201A
:104110000000000008207047082070470F207047FB
:104120000020704700207047002070470020704733
:104130000020704703207047032070470A20704713
:1041400000207047002070475A2070470A207047AF
:10415000012070471E207047064B9A781B7892000A
:104160005943054BD358181840180079431E9841FD
:104170007047C0469903002018000020920189185A
:1041800010B50724CA10214001248C40211C80183E
:10419000002B06D080235B01C018C3781943C1707F
:1041A00005E080235B01C018C378A343C37010BD32
:1041B00092018918CB10C01880235B01C018C37806
:1041C00007200140181C08410123184070470000D7
:1041D0004368F7B5DD171C4E6D0FED1803683268A4
:1041E000ED101B68AF1A041C984732682D18AD1AE1
:1041F000EF4226D463680125D917490FCB18DB108D
:104200009A1A502A1EDCA368104FDE17760FF61894
:104210003B68F610F31A01932368201C5B689847EB
:104220003B683618019AF61AF2420BD4A268D117ED
:10423000490F8A18D210D31A402B00DC0025EDB2AA
:1042400000E00125281CFEBD780300207C0300202F
:10425000F0B5041C8DB02368201C5B68984700995A
:10426000814231DA63680099DA17520FD318DB10F4
:104270005B18DD176D0FED18A368201CDF177F0F8B
:10428000FF182368FF105B6898472368061C5B686B
:10429000BE19201C9847F117490FED108E19EDB289
:1042A000F110C9B2281CFFF757FF009B08AA9854C9
:1042B00001330093CFE7049908AA8B5C012B00D14E
:1042C0002375049A013204922368201C5B68984786
:1042D000049B8342EFDB2368201C5B6898470199AD
:1042E00081422DDA63680199DA17520FD318DB1077
:1042F0005B18DE17760FF618A368F610DA17520F60
:10430000D318DB10013BDD176D0FED182368ED109E
:104310005B68F6B2EDB2201C9847301C291CFFF7F1
:104320001BFF019B08AA985401330193D3E7059919
:1043300008AA8B5C012B00D1E375059A0132059226
:104340002368201C5B689847059B8342EFDB23684A
:10435000201C1B689847029B83422DDA63680299F0
:10436000DA17520FD318DB10013BDE17760FF61861
:10437000A368F610DA17520FD318DB105B18DD179D
:104380006D0FED182368ED101B68F6B2EDB2201C1E
:104390009847301C291CFFF7DFFE029A0AABD05465
:1043A00001320292D3E706990AABCB5C012B00D114
:1043B0006375069A013206922368201C1B68984791
:1043C000069B8342EFDB2368201C1B689847039BF6
:1043D000834231DA6368201CDF177F0FFF182368E0
:1043E000FF101B689847A3680399DA17520FD31878
:1043F000DB105B18DD176D0FED182368061C1B68BA
:10440000BE19201C9847F017400FED108619EDB229
:10441000F010C0B2291CFFF79FFE039A0AABD054DC
:1044200001320392CFE707990AABCB5C012B00D195
:10443000A375079A013207922368201C1B689847CE
:10444000079B8342EFDB0DB0F0BD0000F0B5C46800
:1044500089B00521061C201C0FF0CCF910F0DEF805
:104460000190002C02DD0121039101E0FF22039263
:1044700034690521201C0FF0BDF910F0CFF8009031
:10448000002C02DB0123049301E0FF210491019839
:1044900000210FF075FA019B002803D1019A8021B9
:1044A00009065318181C11F0C7FE0BF059FB041C29
:1044B0000D1C009800210FF063FA009B002803D127
:1044C000009A802109065318181C11F0B5FE0BF054
:1044D00047FB021C0B1C201C291C10F0FBF80FF0E2
:1044E0007BFA0022C0B205900292029A059B9A4282
:1044F00000D159E1009800210FF042FA002806D1BE
:10450000009800210FF028FA002800D1A4E0049BB5
:10451000012B00D043E100253368301C5B689847CD
:10452000854223DA7368301CDA17520FD318DB1078
:104530005B19DF177F0FFF18B368FF10DA17520FF0
:10454000D318DB10013BDC17640FE4183368E41068
:104550005B68FFB2E4B29847211C381CFFF7FCFDF2
:10456000182149196A4688540135D5E70024336873
:10457000301C5B6898473768844210DBFB69301C4D
:10458000984700282CD1B06810F048F800990FF037
:10459000B5FE10F023F8B0600098011C58E0182315
:1045A0001B1969465D5C012D18D13269F5755042C1
:1045B00010F034F8BB69041C301C984710F02EF83A
:1045C0007A490FF08DFB011C201C0FF06DFD10F0DF
:1045D00005F80023306135760093E0E00134C6E74A
:1045E0003368301CDB699847012800D0D7E0B068F9
:1045F00010F014F80021041C00980FF0ADF9002809
:1046000009D1FE21009889050FF0BAF9002804D0DD
:10461000FE21890502E0002100E00099201C0FF036
:104620006DFE0FF0DBFF0021B06000980FF094F9F1
:10463000002809D1FE21009889050FF0A1F9002872
:1046400004D0FE21890502E0002100E000990098D5
:104650000FF054FE0090A2E00399012900D09EE0E3
:1046600000253368301C1B689847854223DA73683D
:10467000301CDA17520FD318DB10013BDF177F0F06
:10468000FF18B368FF10DA17520FD318DB105B194D
:10469000DC17640FE4183368E4101B68FFB2E4B25F
:1046A0009847381C211CFFF757FD182252196B46FA
:1046B000D0540135D5E700243368301C1B68984777
:1046C0003768844210DBFB69301C984700282CD1E6
:1046D00070680FF0A3FF01990FF010FE0FF07EFF3E
:1046E00070600198011C57E0182109196A468D5C19
:1046F000012D18D1F368757558420FF08FFF7B6953
:10470000041C301C98470FF089FF28490FF0E8FA85
:10471000011C201C0FF0C8FC0FF060FF0021F060AE
:10472000357601913BE00134C6E73368301CDB6924
:104730009847012833D170680FF070FF0021041CE6
:1047400001980FF009F9002809D1FE210198890587
:104750000FF016F9002804D0FE21890502E000219F
:1047600000E00199201C0FF0C9FD0FF037FF002178
:10477000706001980FF0F0F8002809D1FE2101982F
:1047800089050FF0FDF8002804D0FE21890502E01C
:10479000002100E0019901980FF0B0FD0190029B0B
:1047A0000133DBB20293A0E609B0F0BD0000C842BD
:1047B000002370B50376437583750375C37503686D
:1047C000041C9B68984705210FF014F82369181AF8
:1047D0007F2801DD7F2004E0031C7F3301DA7F2086
:1047E00040422061E0680FF019FF2368061CDB6877
:1047F000201C9847FA25AD00281A0FF00FFF134927
:104800000FF06EFA011C301C0FF04EFC0FF0E6FEAC
:10481000E06020690FF002FF2368061C1B69201C62
:104820009847281A0FF0FAFE08490FF059FA011CB0
:10483000301C0FF039FC0FF0D1FE2061201CFFF777
:1048400005FE201CFFF704FD70BDC04600007A4441
:10485000F0B5438B2C2219B2FF3287B0041C914271
:1048600003DC027F0133002A02D0012323770023D7
:104870006383237E002B00D12FE1237F002B00D008
:104880002BE163689B4EDA17920ED3189B113360AD
:10489000A368994DDA17920ED3189B11201C2B6038
:1048A000FFF7D6FC207D331C291C002802D02A6883
:1048B000013204E0E27D002A03D02A68013A0A604E
:1048C0000BE0627D002A02D03268013A04E0A27D4A
:1048D000002A02D0326801321A601A68874D002A15
:1048E00004DB2E78964202DC721E00E000221A6081
:1048F0000B68002B04DB6E789E4202DC731E00E026
:1049000000230B60A67D7E49002E1AD0FF201E1CBE
:1049100006401040800180192818C67803273740C8
:104920000F700320B7103840764F387037110320CE
:104930003840754FB60938700320022E58DC701CC1
:1049400056E0667D002E18D0FF201E1C0640104049
:10495000800180192818C0780326071C37400F7083
:1049600087103740B74200D07E1C664F3E7003264A
:1049700007113740644E377039E0E67D002E1BD0BA
:10498000FF201E1C06401040800180192818C078A6
:104990000326071C374001900F7087105948374095
:1049A0000770019807113740B74200D07E1C564F60
:1049B0003E70019EB0091BE000281BD0FF201E1C8A
:1049C00006401040800180192818C0780326071C73
:1049D0003740B74200D07E1C87100E7003263E4041
:1049E000484F3E70071103263E40474F3E708009F6
:1049F000464E307009780191424909780291424946
:104A000009780391414909780491501C06D02E7809
:104A1000D7B2964203DC771EFFB200E00027591C94
:104A200006D06A78DEB29A4203DC561EF6B200E087
:104A30000026627F281C0592391C321CFFF7B8FB48
:104A4000031C0598834216D0A9782A78304889003B
:104A500072434358DB199B181B79002B04D0BB0110
:104A60009B19EB180022DA70281C391C321C059B9C
:104A7000FFF784FB2DE0281C391C321CFFF77EFB5E
:104A8000A9782A782248890072434358DB199B1879
:104A90001B79002B1DD0BF01BE19049F3B1C032FA7
:104AA00000D90323039F9B013A1C032F00D9032243
:104AB000019F12019A183B1C032F00D90323029F68
:104AC000D2183B1C032F00D9032399005318AD19AA
:104AD000EB700123237700236383237F002B06D110
:104AE000201CFFF765FE2368201C1B6A984707B04F
:104AF000F0BDC046840300208003002099030020FD
:104B0000F4020020F5020020F6020020F702002047
:104B10001800002000000000F0B5061C051C341C25
:104B200000203835393489B028700C2120700DF000
:104B30003BFD002803D1337D002B00D08BE000200B
:104B400020210DF031FD002806D1B37D002B03D0CC
:104B5000337D002B00D183E0002020210DF024FDC7
:104B6000002806D1737D002B03D0337D002B00D1AC
:104B700087E000204E210DF017FD071E46D1B4211D
:104B800049000DF011FD73680093B36801930FF0B5
:104B900045FD11F051FB041C0D1C0BF095F8029023
:104BA0000391201C291C0BF09BF904900591331CE8
:104BB0002A331B780693B37F07933D4C7B01E4189F
:104BC000237F002B1FD0002323772376009B02989E
:104BD000039904336360019B0433A360334B324A6F
:104BE00010F0FEFC11F0B6FA304B2F4AE06004984A
:104BF000059910F0F5FC11F0ADFA069B2061637782
:104C0000079BA37702E001370E2FD6D10020592150
:104C10000DF0CAFC341C051C3B3400280CD1E621E5
:104C200050200DF0C1FC02212070281C0DF0BCFCAE
:104C300040000138F31CD8772378002B32D0F21CC7
:104C4000D27F012A01D1393601E038360122013BF9
:104C50003270237026E0331C012232331A706EE763
:104C6000321C0123323213702B70F31CDA7F502078
:104C70005242DA778D210DF097FC331C3B331870CC
:104C80006AE7321C0123323213702370F31CDA7F7F
:104C900050205242DA778D210DF086FC331C3B33D5
:104CA000187066E709B0F0BD0000000000805B40AE
:104CB000A0150020C046C046F0B5A34B87B01D78B4
:104CC000041C002D00D05AE3437E002B02D1FFF7D5
:104CD00023FF45E09D4E04212A1C301C03F036FDC5
:104CE000231C33332A1C18700521301C03F02EFDC1
:104CF000231C353318700421301C03F00DFD231CD8
:104D0000323318700521301C03F006FD231C3433A8
:104D1000187003212A1C301C03F018FD231C3633A5
:104D20001870291C2A1C301C03F010FD231C37337B
:104D3000187001212A1C301C03F008FD231C383395
:104D4000187002212A1C301C03F000FD231C39338B
:104D50001870291C301C03F0DFFC231C3A33187038
:104D600067687B4D381C00225F300EDBFA17520F4C
:104D7000D219D2100432D117490F89182B78C910D3
:104D8000CAB28B4201DC5A1ED2B2A6680023311C83
:104D90007F3109DBF1176B78890E8919013B891185
:104DA000994200DA4B1CDBB29201D318EB18DB7886
:104DB0000022019298072BD0111C3A1C5F320EDBA7
:104DC000F917490FC919C9100431CA17520F5218DF
:104DD0002B78D210D1B2934201DC591EC9B2331CD8
:104DE00000227F3309DBF3176A789B0E9B19013A87
:104DF0009B11934200DA5A1CD2B2281CFFF7D8F953
:104E0000231C2A331B781B1A5A425341DBB20193ED
:104E1000231C01982F33391C187000229F310EDBA0
:104E2000FB175B0FDB19DB100433D9172A78490F06
:104E3000C918013AC910914200DA4A1CD2B2301C9A
:104E400000235F300EDBF3175B0F9B19DB1004337D
:104E5000D817400FC0186978C010C3B2814201DC76
:104E60004B1EDBB29201D318EB18DB7800219B09B3
:104E700002918B422FD03A1C9F320EDBFA17520F51
:104E8000D219D2100432D31729785B0F9B1801393D
:104E9000DB108B4200DA591CC9B2331C00225F338D
:104EA0000EDBF217520F9219D2100432D017400FB6
:104EB00080186B78C010C2B2834201DC5A1ED2B295
:104EC000281CFFF775F9231C2A331B781B1A5A423A
:104ED0005341DBB20293231C029830331870002236
:104EE0001F2F09DDFA102B780432D2109A4201DD0F
:104EF0005A1E00E0013AD2B2311C00235F310EDBB2
:104F0000F3175B0F9B19DB100433D817400FC01841
:104F10006978C010C3B2814201DC4B1EDBB2920142
:104F2000D318EB18DB7800221B079B0F03929342E8
:104F300030D0111C1F2F0FDDF9102B780431C91050
:104F4000994207DD591E06E010010020141C0020C4
:104F5000990300200139C9B2331CB64800225F33DF
:104F60000EDBF217520F9219D2100432D5176D0FC3
:104F7000AD184378ED10EAB2AB4201DC5A1ED2B252
:104F8000FFF716F9231C2A331B781B1A5A42534188
:104F9000DBB20393231C03982E33391C18700022B4
:104FA0005F310FDBFA17520FD219D2100432D1172A
:104FB000A04B490F89181B78C910CAB28B4201DC7B
:104FC0005A1ED2B2311C9B4800237F3109DBF117F6
:104FD0004378890E8919013B8911994200DA4B1CEB
:104FE000DBB29201D318C318DB7800259A072CD0C6
:104FF0003B1C291C5F330EDBFB175B0FDF19FF1017
:105000000437FB175B0FDF190578FF10F9B2BD42BB
:1050100001DC013DE9B2331C00227F330CDBF217C7
:10502000844B920E96195A78B611013A964201DBDA
:10503000D2B201E00136F2B2FFF7BAF8231C2A33EC
:105040001D782D1A6B1E9D41EDB2231C31331E7A43
:10505000271C1D703837002E10D13B78002B0DD146
:10506000231C35331B78002B08D1E0680FF0D6FAEB
:1050700071490FF019F80FF0B1FAE060002D0AD075
:10508000E368092B01DD092304E0181C093001DA6B
:1050900009235B42E360231C36331B78002B07D0C7
:1050A0002369191C033B123101DA16235B42236189
:1050B000231C0022201D0833DA77C277221C0590BA
:1050C00037321278002A00D184E0A17D04910029B2
:1050D00002D0029A002A0BD10198002802D0227D2A
:1050E000002A05D1627D002A74D00399002971D06D
:1050F000221C35321278002A6CD105980122C27721
:10510000DA77E068231C2833052119700723042867
:1051100002DD222811DD03E0011C22310DDA03E05B
:105120000A23362809DC05E0021C0A23363204DB98
:10513000052149420EF05EFBC3B2211C29310B70E0
:10514000631CDA7F013ADA77E31CD87FE27F01281B
:1051500011D1049800280ED0029800280BD0013AF3
:10516000E27705220A70002E26D034222261162210
:105170005242E26013E0002A01D0013AE277627DF8
:10518000002A02D03A78002A04D10499002904D0D8
:10519000002E11D0192252422261002E0CD0221C66
:1051A00035321278002A07D1E268101C483001DB42
:1051B000093AE2600122DA773A78002A45D0221CC7
:1051C00035321278002A40D1E268482A3BDC0932A5
:1051D000E26038E0631CDA7F002A01D0013ADA7716
:1051E000E37F002B01D0013BE377002E13D0231C7B
:1051F00035331B78002B0ED1E368002D03D0591DE9
:1052000006DB033B03E01A1C323201DB053BE360A3
:10521000E31C0122DA773B78002B16D0231C3533B0
:105220001B78002B11D1E368002D07D0052B09DC7A
:10523000033306E0990300209A99193F322B01DCD1
:105240000533E360E31CFF22DA77231C32331A783C
:10525000237D002A19D0002B0DD0211C353109786F
:10526000002908D1211C31310978002901D00721FA
:1052700000E042212161A17D002901D0002B69D0ED
:10528000617D002901D0002B6ED0211C3A310978B4
:10529000002910D02C20215E00290CD1002B0AD12E
:1052A000211C35310978002905D10598C17F0029D5
:1052B00001D10121A185002A18D02C21625E002A8B
:1052C00014DD002B12D1231C35331B78002B1CD18D
:1052D000E31CDA7F2C23012A02D12122524200E072
:1052E000212223610023E260A3850EE0002B0CD075
:1052F0002C22A35E002B08DD0023A385231C2F3363
:105300001B78002B01D11A232361A68D35B2002D05
:1053100035DDE0680FF082F91A490EF0C5FE0FF096
:105320005DF90F23E060012D10D00023042D0DD076
:10533000062D0CDD2269131C673305DB7F23972ABA
:1053400004DC131C183B01E07F235B422361013620
:10535000A68514E0211C35310978002990D13C2123
:10536000E160382121618BE7211C35310978002962
:105370008BD13C214942E1603821216185E707B0AA
:10538000F0BDC0463333333FF0B5204B89B0051C28
:105390001C1DA288AB88059206932A892B68079268
:1053A0001B68281C278898472B68061C5B68281CEC
:1053B000984739B2059F00B23AB2069F36B23BB267
:1053C000079F02903FB200970196114801F04CFBF5
:1053D000002815D02B1C2A33627E1B789A4207D0F6
:1053E000201F03685B6A98471A22AB5E181A68830D
:1053F000A27EAB7F9A4203D0012323760023E3826F
:10540000044F2034BC42C4D109B0F0BDA015002027
:10541000141C0020641700202B4A01210023F0B542
:10542000026094466427421841764783037683835B
:105430008377C377D377821CD377C21CD177021DC1
:10544000D3773C26421DD6770225821DD577C21D13
:10545000D377041C5218D377283408222270627044
:10546000A37065468385A371E37123726372E3744D
:1054700084192376C56356252D1861762F80071C65
:1054800058373B80A377E3776418E3776418E377B2
:105490006418E177011C4031CB770131CE770224CB
:1054A0000131CC770131CB770131CB7720310A70D4
:1054B0004A70021C663213705380137153719371DA
:1054C000D3715374F0BDC04670680100184B30B5FD
:1054D0001B68002B2ADC174A17481378141C17493D
:1054E0000A2B03D80A22D31A9B000DE04A68D5176D
:1054F0006D0FAA18D210243A05D40A3BDB00934260
:1055000002DD131C00E0002389680360CA17520FF4
:105510005218D21063781C3A05D4083BDB00934242
:1055200002DD131C00E00023054A136030BDC046B5
:10553000F00200209903002078030020FC020020E4
:105540007C030020F8B5214F214E3B680025B57043
:105550009A78204C92016260DA789201A2601A78FF
:105560005B78327073700123E56025616376002DEE
:1055700029D03C200DF00CF8231C60331870231C3C
:10558000553300221A70231C5E33FF221A70221C2E
:10559000012366321370B278ED189200BA58107871
:1055A0009178411A013989012164D27892016264AB
:1055B000221C5A321370022DD9D1074A1370074B9F
:1055C0006E221A60F8BDA5770125D0E718000020EB
:1055D00099030020FC020020EC020020F0020020D1
:1055E00008B5034802F09CFAFFF7ACFF08BDC046BF
:1055F000141C002008B50C4B00221A705A709A70C7
:105600000A4BE02252009918094800221860012034
:105610001A765A8318775A779A7720338B42F3D1C8
:105620000448FFF7F9FE08BD99030020A0150020EB
:1056300040680100FC020020F7B5C37F041C002B6A
:1056400004D1431CDB7F002B00D1D1E06368694D9E
:10565000DA17520FD318DB100433D917490FC918C2
:10566000A368A878DA17920ED21892112B7801321B
:10567000614FD2B25A438000C9100131C359C9B237
:105680005B189B181B79002B28D05C4E5C49301CA2
:1056900005F0B8F86368DA17520FD318DB1004333B
:1056A000D917490FC918574BC9101A680131A36897
:1056B000C900891ADA17920ED218534B9211186842
:1056C0000132D200121A082309B2301C12B2009320
:1056D00003F040FF301C002105F094F86368A878BF
:1056E000DA17520FD318DB100433D917490FC91832
:1056F000A3688000DA17920ED21892112B7801322B
:10570000D2B25A43C9103B58C9B25B189B181B79D7
:10571000002B27D0394E3A49301C05F073F86368E6
:10572000DA17520FD318DB100433D917490FC918F1
:10573000344BC9101A68A368C900891ADA17920E87
:10574000D218314B921118680132D200121A082374
:1057500009B2301C12B2009303F0FCFE301C002191
:1057600005F050F86368A878DA17520FD318DB10E9
:105770000433D917490FC918A3688000DA17920EAD
:10578000D21892112B780132D2B25A43C910013982
:105790003B58C9B25B189B181B79002B28D0174DBA
:1057A0001749281C05F02EF86368DA17520FD31832
:1057B000DB100433D917490FC918124BC9101A68E6
:1057C0000139A368C900891ADA17920ED2180E4B54
:1057D000921118680132D200121A082309B2281C4B
:1057E00012B2009303F0B6FE281C002105F00AF85F
:1057F000F7BDC0469903002018000020241C00209B
:10580000FFFF0000780300207C03002010B51A225F
:10581000835E041C002B04DAE62383836423438322
:105820001EE0838B1AB2002A1ADD013B9BB28383F0
:10583000002B4CD1264A031C2A3392781978254B29
:1058400092009B58002901D19A7803E019789A7840
:105850008A1A013A92016260DB789B01A36036E00C
:10586000201CFFF729FA201CFEF7A2FF611DCB7F49
:10587000A21D013BDBB2CB77002B03D1D3773C23B6
:10588000CB7703E0012B00D00223D3772368201CC1
:105890001B6A9847201CFFF7CFFE201CFFF774FD02
:1058A000231C31331B78002B0AD0628B131C12B2DD
:1058B0005A2A00DD5A231AB2D243D2171340638307
:1058C000221C002332323A3413709370237010BDBF
:1058D000990300201800002013B50D4C0D49201C21
:1058E00004F090FF002106230A1C0093201C54237F
:1058F00003F030FE201C002104F084FF201C10382F
:1059000000F0A4FF0A22011C201C0CF07CFB13BD3C
:10591000241C0020FFFF0000F7B5041CFEF758FC14
:10592000051E55D1E3681A27E05F9C46674662680A
:10593000A368284E2849294C002F23DDD7177F0F55
:10594000BF183668FF10033FBF1BDE17760FF6182F
:105950000A68F610033E0C21B61A0DF04BFF00B298
:10596000FFB2F6B2002803DB032802DD042000E0CA
:10597000281C1B4B8000C3580020009079B272B2E3
:10598000012021E0D7177F0FBF183668FF10033FB3
:10599000BF1BDE17760FF6180A68F610033E0C21BF
:1059A000B61A0DF027FF00B2FFB2F6B2002803DBF3
:1059B000032802DD042000E0281C094B8000C358A6
:1059C000002079B272B200900190201C05F0A0FC7A
:1059D000F7BDC046780300207C030020241C002073
:1059E0000400002000000000F0B5A34C87B0201C8C
:1059F0000221002202F0AAFEA04D002812D0201C95
:105A00000521002202F0A2FE00280BD19C4B1A783F
:105A1000002A05D12A782F2A02D854218A1A2A70FE
:105A200001221A70201C0121002202F08FFE0028A2
:105A300012D0201C0521002202F088FE00280BD184
:105A40008F4B1A78002A05D02A78302A02D954219F
:105A50008A1A2A7000221A700521201C002202F0E6
:105A600075FE884E011E00D1A6E0201C03210022F5
:105A700002F06CFE00280BD033780522043BDBB229
:105A8000042B04D91A1C3C2B00D93C22D2B2327010
:105A9000201C0121002202F059FE00280BD02B7897
:105AA0000522043BDBB2042B04D91A1C4C2B00D971
:105AB0004C22D2B22A70201C0221002202F046FEA3
:105AC00000280BD02B7805220433DBB2042B04D939
:105AD0001A1C4C2B00D94C22D2B22A700021201C57
:105AE0000A1C02F033FE00280BD033780522043361
:105AF000DBB2042B04D91A1C3C2B00D93C22D2B2B5
:105B00003270201C0421072202F020FE00281BD046
:105B1000201C042102F000FE071E15D15CE00137B5
:105B20000E2F11D0584A7B01D3181A7F002AF6D0C5
:105B3000039C00225C60049C1A779C60059C1A768A
:105B4000DC60186159779A77504C0021201C04F0D2
:105B500059FE4A4E4B4D31782A7809270439053AC7
:105B600009B212B20097201C072303F0F3FC31782E
:105B70002A7807230539043A12B209B20093201C8F
:105B80003B1C03F0E7FC201C414904F03BFE31784C
:105B90002A78404F0439043A49B252B2201C3B1CC7
:105BA00005F0BEFA33782A785021C91A043A49B26E
:105BB00052B2201C3B1C0BE01034201C04F022FECF
:105BC000297832780439043A324B49B252B2201C57
:105BD00005F0A6FA07B0F0BD2F4EB368D817400FF6
:105BE000C0182E4BC0101A68264B801A1A78801ADB
:105BF0000C3810F0E3FA7368041CD817400FC01873
:105C0000274BC0101A681D4B801A1A780D1C801A79
:105C1000043810F0D3FA021C0B1C201C291C0AF0BB
:105C2000B7F910F05BFB1F4BB4681860736804345D
:105C300004330393049410F0FFFA041C0D1C0AF0C3
:105C400043F80C4B0A4A0FF0CBFC10F083FA291CE6
:105C50000590201C0AF044F9064B054A0FF0C0FCE1
:105C60002A3610F077FA31785CE7C046C046C04665
:105C70000000000000805B40141C00201101002087
:105C80001C00002012010020A0150020241C002070
:105C9000FFFF0000B16D0100FC0200207C0300202A
:105CA000780300208C030020484BF0B51B6889B0B6
:105CB000DA17520FD318DB1002930C330593444BC1
:105CC000041C1B68DA17520FD318DF10381C0A3077
:105CD0000690069A974277D0FBB203930298DB00B6
:105CE000DBB207930190019B059883426AD0FF23A2
:105CF0003E1CA17822781E40019D364889007243DF
:105D00001D400B585B199B181B79002B56D032484D
:105D1000002104F077FD019A2C4BD2B21B68D10010
:105D20002078C91A2A4B704304921A68079B84464C
:105D30009A1AA37827489B001B5849B25B19634401
:105D40001879264B8000C35852B2234805F0E8F971
:105D5000A17822781F48890072430B585B199B1861
:105D60001B79002B2AD00499039A201CFEF720FAF5
:105D70001B4B03211870AB019B19E318DA78194803
:105D8000131C0B400370184D90100840287015111B
:105D90002940164D92092970154D1E182A70154D6F
:105DA00076102E704018144D401028708918134832
:105DB00049100170D31812495B100B70019A01321F
:105DC000019290E7013784E709B0F0BD7803002025
:105DD0007C03002018000020241C0020200000204C
:105DE00098030020F5020020F7020020F8020020AE
:105DF000FA0200209C150020F9020020F402002085
:105E0000F6020020F0B5BE4C89B0201C01F062FB08
:105E1000002800D1C4E1201C103004F0F9FD201C42
:105E2000903004F0F5FDB74B1B78002B00D1B7E1A3
:105E3000201C062102F070FC002875D00022201CD6
:105E4000052102F083FC021E09D0AF4B0733DA7F35
:105E50000132D2B2062A00D90022DA7764E0201C8F
:105E6000042102F073FC00280AD1A84B041C1A7804
:105E7000061C04925A789B7806920793029015E0CC
:105E8000A14B01212A331A7801320A404BE0079BCB
:105E900099009F4BCB58DB5D002B13D1049B013540
:105EA000FF18069BEAB29A42F1D30134049BE2B296
:105EB00003929A4230D2954AA301D3180593271D25
:105EC0000025EEE791480399FEF772F900280FD1FB
:105ED000059A5319DB780322181C991010401140C1
:105EE0004118181102408A189B09D318F618D5E7F3
:105EF0000128D3D1059A5319DB780322181C991075
:105F0000104011404118181102408A189B09D318FB
:105F1000029AD2180292C1E77E4B029A1E607E4B13
:105F20001A607E4B01221A707C4A1378002B38D1FC
:105F3000754C201CFFF76AFC201C3C30FFF766FC08
:105F40007248FFF7B1FE764CE0235B00E518201C99
:105F50002034FEF77DFCAC42F9D1FFF745FDFFF799
:105F6000BBFCFFF7B3FA6F4B1A68002A4ADD012029
:105F7000013A022140421A600CF016FB6A4C6B4B4E
:105F80002268022150431A6810181860012040420C
:105F90000CF00AFB2268664B50431A681018186010
:105FA00030E0012B2ED1634C6349201C04F02AFC05
:105FB00000210C230A1C0093201C542303F0CAFA6E
:105FC000201C002104F01EFC524B5C4F5C4E00254F
:105FD00019680A22201C3D8035800BF0F6FF07234C
:105FE00033804D4B0A221968201C3D800BF0EDFFD9
:105FF000201C103804212A1C02F0A8FBA84201D062
:10600000464B1D704F4D2B68002B00DCC8E0482B21
:1060100018DD3E4A3E4B917810788900C9588B783C
:10602000DB00243B05D40A38C000834202DD031C98
:1060300000E000233D480360CB785278DB001C3B36
:106040001DD522E0242B24DD3049314B8A78087895
:106050009200D25814789378E31ADB00243B05D4DD
:106060000A38C000834202DD031C00E000232F48F1
:106070000360D3784978DB001C3B06D40A1C083A3D
:10608000D200934202DD131C00E00023284A136073
:1060900070E0284C294F2A4E122B59DD1B4A1C4B0D
:1060A000917810788900C9588B78DB00243B05D49F
:1060B0000A38C000834202DD031C00E000231B48B5
:1060C0000360CB785278DB001C3B05D4083AD20041
:1060D000934202DD131C00E00023154A201C00211E
:1060E000136004F08FFB0C233B80174A1823338086
:1060F000201C0223154913700BF020FF3AE0C04624
:10610000141C0020EC020020FC0200209903002057
:106110001800002090030020940300207403002046
:10612000A0150020880300206017002078030020BD
:106130007C030020241C0020FFFF0000AC1E002078
:10614000941E0020F0020020A41E00203B6E0100DF
:10615000201C002104F056FB0C23124A3B8018231C
:106160003380201C0323104913700BF0E7FE0F4B04
:1061700000221A702B68013B2B60002B10DC0C4CAA
:106180000021201C04F03EFB0A4A002313800A4A27
:10619000201C1380034B012208491A700BF0CEFE1D
:1061A00009B0F0BDA41E0020426E010010010020C5
:1061B000241C0020AC1E0020941E0020228201001E
:1061C000F0B58BB0041CFEF703F8002800D068E29D
:1061D000231DDB7F251C28350895002B49D1266916
:1061E0000135052E22DD3E2E04DD089805230370BF
:1061F0000A233DE0301C0EF011FAA3490DF054FFC4
:106200008221C9050DF008FC0DF0CEFB089A107034
:10621000301C0FF0D3FF994B974A0FF0E1F9984AE1
:10622000984B0EF057FA0DF0D7FB1AE0731D1ADAEF
:10623000301C0EF0F3F99549061C0DF035FF822154
:10624000C9050DF0E9FB0DF0AFFB089A90491070FD
:10625000301C0DF029FF8221C9050DF0DDFB0DF08A
:10626000A3FB287005E0002E03D1089808230370D3
:106270002B70E37F6268DB00D31A6360631CDB7FF3
:10628000A568DB00EB1AA360E31CDB7F251C083547
:1062900080480021012B00D006E104F0B3FA6368C6
:1062A000E068DE17760F2821F6180DF0A3FAA36830
:1062B000F6103718DE177848760F0068F61823694D
:1062C000043F3F1A1A1CFFB2F6100520EF3208DB1C
:1062D0001A1C0020273204DA2821181C49420DF02C
:1062E00089FAEB7F6D4D321AD21A2B68063AD21A10
:1062F000E31DD87F6A4BC00079B252B2C3586548DB
:1063000004F00EFF6368E068DE17760F2821F618A8
:106310000DF070FAA368F6103718DE175E48760F96
:106320000068F618236904373F1A1A1CFFB2F610EA
:106330000520EF3208DB1A1C0020273204DA28215E
:10634000181C49420DF056FA79B2271C0837FB7F1A
:10635000321AD21A2B68063AD21AE31DD87F504B54
:10636000C0000430C35852B24A4804F0D9FE49482C
:10637000002104F047FA231C2A3319786268A368C5
:10638000F87F002919D1D117490F8918424A2D6881
:106390001668DA17520FD218D210121A521B089D23
:1063A000231C2878C910891B29331B7809B2009057
:1063B00012B2384803F0CEF818E0D117490F891807
:1063C000354A2D681668DA17520FD218D210121AF1
:1063D000521B089DC9102878231C891B29331B7860
:1063E00009B2009012B22B4803F072F8294D2D49E2
:1063F000281C04F007FA6368201C2930D91708907C
:10640000490F0278244FC918C910A36889183A683F
:106410000239891ADA17520FD218231C083307934E
:10642000D87F1E4ED2100232121A3068A31D121AE3
:10643000099309B212B2DB7F281C03F076F8636877
:106440000898D917490F0278C918C910A368891884
:106450003A680539891ADA17520FD218079BD210F9
:10646000D87F0232121A306809B2121A12B2099891
:1064700005E1C046C046C046AF9811DE1E84A03F6D
:106480000000000000002040723146BD704221BD76
:10649000ED82C13C241C0020780300207C030020F6
:1064A00014010020FFFF000004F0ACF96368E0680D
:1064B000DE17760F2821F6180DF09CF9A368F61068
:1064C0003718794ADE17760F1268F6182369043FE9
:1064D000BF1A1A1CFFB2F6100520EF3208DB1A1C97
:1064E0000020273204DA2821181C49420DF082F9D5
:1064F000EB7F6E4D321AD21A2B68063AD21AE31D80
:10650000D87F6B4BC0000430C3580020009001209E
:1065100079B252B20190674804F0FAFE6368E0680D
:10652000DE17760F2821F6180DF064F9A3685E4A8D
:10653000DF17F6107F0F36181268FF18236904362C
:10654000B61A1A1CF6B2FF100520EF3208DB1A1C2F
:106550000020273204DA2821181C49420DF04AF99C
:1065600071B2261C0836F37F3A1AD21A2B68063A03
:10657000D21AE31DD87F4E4BC000C358002701201C
:1065800052B2019000974B4804F0C2FE4948391CB2
:1065900004F038F9231C2A3319786268A368F07F65
:1065A000B94219D1D117490F89183F4A2D68166889
:1065B000DA17520FD218D210121A521B089D231C40
:1065C0002878C910891B29331B7809B2009012B2B0
:1065D000384802F0BFFF18E0D117490F8918324A36
:1065E0002D681668DA17520FD218D210121A521BE1
:1065F000089DC9102878231C891B29331B7809B2F0
:10660000009012B22B4802F063FF2A4D2A49281C41
:1066100004F0F8F86368244FD917490FC918A36824
:106620003868DA17520FD218231C0833C9100893A0
:1066300001311E4E091AD210D87F0232121A306868
:10664000A31D121A079309B212B2DB7F281C02F0B5
:106650006CFF63683A68D917490FC918C910A36855
:106660000431891ADA17520FD218089BD210D87F3A
:106670000232121A306809B2121A079812B2C37F96
:10668000281C02F052FFE37F6268DB00D3186360CE
:10669000631CDB7FA568DB00EB18A360201CFEF702
:1066A000CBFF0BB0F0BDC046780300207C03002078
:1066B00014010020241C0020FFFF0000C046C0463B
:1066C000031C007C0822104004D0D86A5B6AC01A00
:1066D00000D501487047C046FFFFFF7F08B5103066
:1066E00007F074FC08BD08B5103007F0B3FA08BD18
:1066F00008B5103007F090F908BD13B56C460734A3
:106700001030211C012207F0C5F8012801D12078A2
:1067100001E00120404216BD08B58C23DB00C01803
:1067200008F073FC08BD08B58C23DB00C01808F026
:10673000FBFC08BD10B58C24E400001908F0B3FC84
:1067400010BD10B58C24E400001908F06BFD10BDDD
:1067500010B5034B041C036002F0B4FE201C10BDF6
:10676000C875010010B5041CFFF7F2FF201C0BF0E8
:106770004BFF201C10BD07B56B46D9710733103095
:10678000191C012207F022FC0EBD30B5051C8BB090
:1067900001A80A1C0024291C01230470447007F07E
:1067A000A8FA0BB030BD000001787022002311421E
:1067B00002D0024B18600123181C7047BC1E002039
:1067C0000023037443744360FA239B008360014BEE
:1067D00003607047C06F010070B5031C0A1C1033C2
:1067E000103270CA70C370CA70C370CA70C34B686D
:1067F0008C68C96843608460C16070BD73B5041C57
:106800003C34051C201C04F009F9061C201C04F073
:1068100015F92B1C0021009601901033201C0A1C36
:1068200002F0DCFC73BD38B50AF064FF041C0AF00A
:1068300061FF444301200BF017F9051C02200BF007
:1068400013F9684360400BF09DFE38BD07B500208A
:106850000FF0A0FF6B460733181A80B20EBD7047C9
:10686000F0B53C4B3C4F9DB0FC18061C0D1C201C89
:106870003A490192FFF789FF002808D10FAB187041
:106880005870211C181C354A012307F0FFFA02A892
:10689000FFF796FF2F4B3249FF18381CFFF775FFA3
:1068A000041E17D10FA8FFF78BFF2D4A6323391C55
:1068B00013A807F01EFA0FA902A8FFF78DFF211CED
:1068C00006A807F0DBF8201C02A906F005FC06A8C4
:1068D00007F008FA0FA8FFF773FF1F491D4B204A66
:1068E000C91813A8632307F004FA0FA902A8FFF739
:1068F00073FF002106A807F0C1F802A806F0E4FB28
:10690000291C431C019A301C06F082FB0021041C48
:1069100006A807F0B3F8631C11D1002002A906F005
:10692000DBFB301C291C019A002306F071FB041CC0
:10693000431C04D106A807F0D5F9002007E0201C6D
:1069400002A906F0C9FB06A807F0CCF901201DB08A
:10695000F0BDC0463C040000A017002050720100AA
:1069600054720100F0B5C8235B00C35C87B0051CFE
:10697000002B69D000260B2B02D80C26F61AF6B293
:106980002C1C1034201C012103F052FB0021201C80
:1069900003F038FF201C04F051F8071C201C03F002
:1069A00041FB0390201C04F039F80490201C03F0F4
:1069B00039FB039BF219033A03300327D21A00B2C2
:1069C00012B2049B00900197201C002103F0E6FA0C
:1069D0001E49201C03F016FF201C04F02FF8039022
:1069E000201C03F01FFB0490201C04F017F80590F6
:1069F000201C03F017FB039BC019F218049B033AF9
:106A0000D21A00B2059B12B2002100900197201CFF
:106A100003F0B7FB201C04F011F8071C201C03F046
:106A200001FBF219013A121A12B2201C042103F0E0
:106A30003BFFC6235B00E958201C0BF083FAC823F8
:106A40005B00EA5C013AEA5407B0F0BDFFFF0000CA
:106A500010B50021041C3C3003F0AAFE5A23FF337A
:106A6000E01801F0D9FD10BDF0B505A80025445F80
:106A700006A80027C65F07A80027C55F0020994227
:106A80000ADB9B19994207DAA24205DB641901234C
:106A9000A24200DB031CD8B2F0BDF7B50126041CEE
:106AA00000960196502140220023103004F064FF2C
:106AB000201C1E211F2200233C3001F06DFE201CF3
:106AC00004220096019602210023903004F054FF26
:106AD000201CBC30FFF774FE271C231C86210025D8
:106AE000F033B83749001D705D706018BD64FFF762
:106AF00067FE8422A02152004900A3186218422197
:106B0000FF311570621815709D64B822B623B3402A
:106B10005200E654A01808212622522301F0E6FA7A
:106B2000C9237242B340201CE252FEBD08B50321C6
:106B300006F040FA08BD0000F0B5061C38369FB0DC
:106B4000071C301C08F036FEC44B19A91B88C44A28
:106B50000A93C44B1B880B93C34B1B880C93C34BEA
:106B60001B880D93C24B1B780E93C24B1B780F935F
:106B7000C14B1B681093C14B1B781193C04B1B7802
:106B800012930B1C31CA31C3B82464003C1903CAE8
:106B900003C3201C069401F011FB069801F016FABD
:106BA0000024E5B20698039501F004FBB54BE35CC5
:106BB000834206D2039B01340133DBB20393052CDD
:106BC000EFD13C1C3C34201C002103F01BFE0C25A3
:106BD00000210A1CA023201C009502F033F9201C80
:106BE000A94903F00FFE0022A84B201C282103F026
:106BF000A1FB381C1030A649089003F05FFE9C4BA7
:106C000002221A709B4B0022201CA2491A7003F02A
:106C1000F9FD201C03F012FF85420CDA201C03F062
:106C2000FDFE0221031C2AB20091201C002102F06B
:106C300009F90435EDE79749201C03F0E3FD201C1A
:106C400003F0ECFE031C0E25403B1BB22021282242
:106C50000095201C02F0F6F8201C03F0DFFE031C58
:106C60002C3B12201BB2362200901621201C02F071
:106C7000E9F88949201C03F0C5FD201C03F0CEFE75
:106C8000031C1221303B1BB236220091201C18211C
:106C900002F0D8F87F49201C03F0B4FD201C03F05B
:106CA000BDFE031C403B00951BB20025201C20218B
:106CB000482202F0C7F8079501250595002509959A
:106CC00004950AF011FD099D401B2828F9D9301CB4
:106CD00008F032FD0AF008FD0990381C01F0D8FCDC
:106CE000079D06980135079501F068FA381C0721C1
:106CF00001F01AFD00280BD1381C052101F014FD0C
:106D0000002805D1381C062101F00EFD002821D0F5
:106D1000301C08F055FD514B0A9C1C800B9D514BBB
:106D20000C9C1D80504B0D9D1C80504B0E9C1D805B
:106D30004F4B0F9D1C704F4B109C1D704E4B119D67
:106D40001C604E4B129C1D704D4B1C70FFF787FD55
:106D50001FB0F0BD381C0721192201F0EFFC0028FC
:106D600002D0381CFFF774FE381C0021082201F005
:106D7000EDFC00280BD0049D01350495042D02DCA8
:106D80000125059503E00125059500250495381C8E
:106D90000321082201F0DAFC00280AD0049D013DFD
:106DA000049502D30125059503E0012505950425E9
:106DB000049507980A210CF073FD201C042903DCBC
:106DC000354903F01FFD03E02F49334A03F050FD1E
:106DD000224D1C232B80234D3A2028802F49201C34
:106DE0000BF0B0F81D4928233A220B802A80201C82
:106DF0002549294A03F03CFD201C2349264A03F07B
:106E000037FD049D042D00D910E1281C0CF090FCE6
:106E1000030E76BFCF00381C042101F07DFC002852
:106E200000D103E1381CFFF713FEFFE0381C0421FA
:106E300001F07AFC00283FD0301C08F0B5FC002897
:106E40002ED0301C08F0AAFC301C08F06DFC842108
:106E500049007818002201212AE0C046AC1E00201B
:106E6000F06F0100941E0020A81E0020921E00203A
:106E7000A41E002083010020981E0020901E0020E8
:106E8000A51E002018720100FFFF0000B074010071
:106E900058760100C772000068CC000062720100E1
:106EA000301C08F075FC84214900781801210A1C67
:106EB000012506F007FC0595381C0221042201F08B
:106EC00045FC002805D0301C08F08AFC072800D8B3
:106ED00052E1381C0121042201F038FC002800D1C5
:106EE000A4E0301C08F07CFC002800D19EE0301C9F
:106EF00008F05AFC051E00D098E055E1381C04212A
:106F000001F012FC002800D190E0E348FFF70EFEEC
:106F100015AD011C201C0BF015F8E0490E22281CB1
:106F20000FF0E7FA281C04210522FFF799FC00283E
:106F300007D04223AB7208985023291C2B7304F00E
:106F4000F8FBB62300225B00FA54D54D904208D0DE
:106F5000201CD449D44A03F08BFC28232B80D3482F
:106F600007E0201CD249D04A03F082FC2823D148F4
:106F70002B80FFF7DBFD011C201C0AF0E3FFFA2049
:106F80000AF0EAFB0122B6239340FA5452E0381C7F
:106F9000042101F0C9FB002800D01BE1381C0421AA
:106FA000192201F0CBFB002800D013E13EE0381C91
:106FB000042101F0B9FB002800D0B3E1381C022104
:106FC000042201F0C3FB002800D0ABE1381C0121F2
:106FD000042201F0BBFB002818D0039D002D04D033
:106FE0002B1C013BDBB2039301E004250395B24B5C
:106FF000039D0698595D01F0B5F884214900781881
:10700000039A0421012506F05DFB059500250698ED
:1070100001F0A6F8854209D2FF23291C00930698A7
:107020001A1C013501F079F8EDB2F0E7059D002D4D
:1070300000D19BE09A4DA1494A2328200B80A04A09
:1070400028809949201C03F013FC04980521063080
:107050000CF026FC89006A4664318858032105F04B
:10706000A9FF011C201C0AF06DFF94483A21282337
:1070700001808D4A201C93492B8003F0F9FB049A70
:107080006946930064335858032105F093FF011CAF
:10709000201C0AF057FF8C49201C0AF053FF201CCB
:1070A000814A884903F0E4FB844A04983A23138018
:1070B000012806D004283FD12B88303B2B800025A7
:1070C00019E02B88301C203B2B8008F06DFB00283A
:1070D00000D042E1301C08F083FB002811D13CE1D4
:1070E0007849714A03F0C4FB0135201C77490AF046
:1070F00029FF042D20D00399201CA942F0DC7049FF
:10710000EFE7201C6F49684A03F0B2FB201C70496E
:107110000AF018FF301C08F063FB062804D9201C75
:107120006349614A03F0A4FB301C08F059FB0A22B2
:10713000011C201C0AF075FF594B28221A805F4B56
:107140002A221A80201C5E4A574903F091FB0498BA
:10715000052104300CF0A4FB19AB8900C8580321A9
:1071600005F028FF011C201C0AF0ECFE0698002503
:1071700000F02CFF0595A4E5301C08F031FB411C04
:10718000C9B2301C08F022FB301C08F029FB842512
:107190006D00021C0021781906F094FA0125301CBC
:1071A00008F0C2FA059594E6301C08F019FB411E60
:1071B000C9B2301C08F00AFB301C08F011FB842116
:1071C0004900021C7818291C06F07CFA301C08F0D3
:1071D000ABFA2FE73F48FFF7A9FC15AD011C201CB7
:1071E0000AF0B0FE2D490E22281C0FF082F904216E
:1071F0000522281CFFF734FB192205900421381CB6
:1072000001F09CFA059A1390002A1DD013980028CB
:1072100010D14223AB7250232B73C2235B00FA20A0
:10722000F95C80000CF0E6FA03235843C9235B00A5
:10723000F85204E00122C92352425B00FA52089836
:1072400015A904F063FA0590B62505996D00002391
:107250007B55994251D0204B139D01221A70002D6D
:107260003ED1FA200AF078FA0D4D28231B482B80D6
:10727000FFF75CFC011C201C0AF064FEFA200AF0F7
:107280006BFA0122B6239340FA54301C08F098FAA6
:107290000A9C2C8042E5C046387001006C720100E7
:1072A000AC1E00206886000068CC00001875010044
:1072B000E4D800006075010018720100941E0020DF
:1072C000C7720000FFFF00006073010064720100DC
:1072D0006672010020700100101C002098740100EB
:1072E0000A200AF039FA381C01F0D2F9381C0421BE
:1072F00001F01AFA0028F3D0B3E71D49201C1D4AFB
:1073000003F0B6FA1C4B28221C481A80FFF70EFC2B
:10731000011C201C0AF016FEFA200AF01DFA0123B7
:107320007B5587E6039B04250133DBB20393039867
:10733000002385425B415B421840114B0390195C6E
:10734000069800F00FFF842149007818039A291C41
:10735000012506F0B7F9059538E6201C0949054ACC
:1073600003F086FA201C08490AF0ECFDE4E6C0466A
:10737000E4D8000068CC0000AC1E0020607501005D
:1073800018720100C772000069720100F0B5072190
:107390008BB01922041C01F0D1F9002802D0201C66
:1073A000FFF756FBC9256D00635B1AB2013201D0AD
:1073B000013B6353201C072101F0B6F9002806D1D8
:1073C000635F002B6ED1384B1B78002B6AD0364A96
:1073D0001378002B63D0354B354A1B88251C00934E
:1073E000344B12881B8838350293334B281C1B887A
:1073F00001920393314B261C1B7810360493304BBB
:107400001B7805932F4B1B6806932F4B1B78079314
:107410002E4B1B78089308F0CDF9281C08F0C4F90E
:107420000990281C08F0B4F92949301C03F046FAE9
:10743000B8225200A718381C00F0C0FE381C00F01B
:10744000C5FD301C012104F06CF9174A0023201CF3
:107450001370FFF7D3F9099B144F164E002B02D17E
:10746000281C08F09BF9281C08F0AAF9009A104B78
:107470003A80019A1A80029B039A33800E4B1A803D
:107480000E4B049A1A700E4B059A1A700D4B069A01
:107490001A600D4B079A1A700C4B089A1A70201C30
:1074A000FFF74AFB0BB0F0BD101C0020AC1E002003
:1074B000941E0020A81E0020921E0020A41E002062
:1074C00083010020981E0020901E0020A51E002091
:1074D00058760100F0B5C4268BB07600041C85599F
:1074E0000AF002F9C2277F00E35D281A251CFC354B
:1074F000984202D9E86E00287CD1EE6E00208642C8
:1075000000D088E0201CFFF741FF201CFFF72AFA7B
:1075100005F034FD201C383008F00EF9201CFFF770
:107520006DF9211C9031081C039103F087FAC0B259
:107530000590039803F072FA3849C0B204901431F0
:1075400008A808220EF0D5FF08AF05998E4227D271
:1075500000250498EBB283421ED229B232B20398BE
:1075600004F0FBF805F091FD0102090E030407AADF
:107570008C461B0E107053709170DBB2C2B2604625
:107580000293C3B2795D0093B8235B00E018029BBD
:1075900000F0C3FD0135DCE70136F6B23F18D4E751
:1075A0001F4B251C1B787134FC35FF34002B13D086
:1075B000286E0A210CF014F908AB042905D81978B3
:1075C00000230093201CFF2204E01978002300937D
:1075D000201C1A1C00F0A1FD201C00F0F7FC201C50
:1075E00000F0ECFD0AF086F8AA6EE866801A68667C
:1075F000002010E00AF078F8E35DC0182B6EA0516F
:1076000001332B660023EB660AF074F8A866201C91
:1076100001F03EF801200BB0F0BDC046F06F010054
:10762000101C002008B50848B6235B00C35C002B83
:1076300009D0031CFC33DA6E002A02D19B6E002BAA
:1076400001D0FFF747FF08BD141C002037B51F4BC2
:107650001F4A00249C541F4A19219C541E4A1F4D46
:107660009C541F4ADC7199541E4A281C9C541E4A83
:10767000211C1A60221C062305F042FD281C221C36
:10768000231C01210C3005F03BFD281C0D23009329
:1076900002210122154B183005F03CFD281C221C4C
:1076A00003212823243005F02BFD0421281C0B1C6A
:1076B000221C303005F024FD0D4C201CFFF7EDF9A5
:1076C000201C0C490C4A0EF0B3FE37BDA017002059
:1076D0003C0400003D040000640400006417002026
:1076E0006604000069040000E06F01007A72010086
:1076F000141C00209577000000000020F0B5012345
:107700008DB020490022041C009302A8182304F025
:1077100011F9201CFFF7DEFE1B481C4938300022FF
:1077200007F0D8FF1825201CFFF7D4FE0028FAD058
:10773000154F013DEEB2381CF5B2103003F068F978
:107740006BB200220A2B01DC0A3EF2B2381C103068
:1077500052B200210E4B261C03F0E2FC90360021B1
:10776000301C0A1C02AB04F049F9002DDBD1301C9F
:1077700003F04EF9201CFFF7ADFE02A803F000FA5B
:107780000DB0F0BD62700100141C002050700100AB
:10779000B0740100B8235B0010B5041CC01800F0E1
:1077A000AFFB201C903003F0EBF9201C3C30FEF7BF
:1077B000CFFF201C103003F0E3F9201C10BD0000A7
:1077C000F0B5857EBBB00D95068CC6490A96458CF2
:1077D000C54B0EAC0B951C3101251022071C201C3B
:1077E0001D700EF086FEC14EC14800233618301CB5
:1077F000211C2374FEF7C9FF031C6B40DBB202900F
:107800000493002836D1301CBA49FEF7BEFF002889
:1078100039D0B949201C0EF095FF13A8FEF7D0FF10
:1078200017A8311C221C2B1C06F063FA20A8FEF7B7
:10783000C7FF2DA8FEF7C4FF17A9012231A806F043
:10784000C8F920A82DA9FEF7C7FF037C002B1AD08A
:1078500024A803781A07ECD50FA90D2206F0CEFC58
:107860000EA8A6490EF07DFF002800D12FE10125CA
:10787000049502950123381C009310300A990B9A45
:107880000EAB03F0D5FE9E48FFF750F90C900EF0BA
:1078900061FF954B9B4A1B7812783C1C5A4350431E
:1078A000994AC0B21278103453430390DBB2201CC3
:1078B000059303F0B3F8039D401BC30F1818401045
:1078C000C0B20690201C03F0B9F805210BF092FF1E
:1078D00003235843059E00253018C0B201260790A7
:1078E00009950896381CFFF7F5FD0028FAD0099D88
:1078F000002D0DD0029E002E13D03B8D012B0AD1FE
:107900000093201C0A990B9A0EAB03F091FE02E043
:10791000029D002D05D0201C002603F03DFF099696
:1079200002E0201C03F074F8049D002D4BD0201CB5
:10793000764902F067FF6C4E5025317809200F22FE
:107940002B1C4A434B434143201C0091002101F072
:1079500001FE201C6E4902F055FF33780E225A4377
:10796000201C6B43002101F0ECFD337818225A43B0
:10797000201C6B43002101F0E4FD3378012B10D96A
:107980000E225A43201C01326B43002101F0D9FD25
:10799000337818265E43201C721C6B43002101F0D3
:1079A000D0FD201C5B4902F02DFF4F4B11221B78AC
:1079B000CA265900201C5A43760002F075FF201C8D
:1079C000B9190AF0D1FA3B1CFC331A6E1F2313407D
:1079D000132B5AD8201C4E4902F014FF424E069D2C
:1079E00030784200524292B2A918079D8300AA182B
:1079F000039D09B2EB18032568438446059812B22B
:107A0000844460460090201C01F062FD307801281B
:107A100016D94200830052426843069E013292B258
:107A2000059DB118079E2818B2180238039E00B2AF
:107A3000023B009009B212B2F318201C01F048FD7D
:107A4000201C324902F0DEFE274B079D1878069E67
:107A50002A1A059D311A039E43002818F318009036
:107A6000201C01F077FD201C2A4902F0CBFE069E67
:107A7000079D31B22AB2201C02F016FF0126201CFD
:107A80000C990AF05FFA08960BE03B8D012B08D1A8
:107A9000029D002D05D0089E002E02D000250993DE
:107AA00008951D48042100F037FE002800D119E791
:107AB000381C383007F030FE012300930193201C5E
:107AC0000A990B9A0D9B03F0BBFE3BB0F0BD0EA8CC
:107AD00012490EF046FE002800D1AAE601260496BF
:107AE0000296C7E6F06F0100A41E0020A017002038
:107AF0003C040000507201008B720100757201009D
:107B000038720100901E0020A51E002068CC0000E5
:107B1000C7720000FFFF0000141C002086720100E5
:107B2000F0B5C84BCA211A78041C4900022099B04C
:107B3000824361181A70081C00910E22C2490EF08F
:107B4000D8FCD12300255B00E554C22328225B002A
:107B5000E254231CFC330122DA66AD23FF225B00D2
:107B6000E254B8235B00E318181C029300F0D8F924
:107B7000029800F023FB201C00F07AFD201C00F08E
:107B800087FD201C3C300221271C1037019000F09B
:107B90009FFF0198032101F0F1F9291C381C02F024
:107BA00007FEAA4EAA4B0121103619702A1CA94BB8
:107BB000291C301C03F0B4FA2A1CA749381C02F017
:107BC00057FE381C02F03AFF0390301C02F02AFAEC
:107BD000039A291C131A1AB2381C02F065FE9F4939
:107BE000381C0AF0AFF9201CFEF708FE9C4D9D4A98
:107BF0008C23DB00E818A91802231A2207F070F979
:107C000000281ED0984BE81806F06CF80121281CBB
:107C100006F0FCFF011E08D09348291C2E18301CCA
:107C200005F01FFE00280CD005E0281C06F0EEFF32
:107C30000028F1D105E0301CFEF7B6FD002800D089
:107C4000F3E00022381C894902F012FE8849381CF2
:107C50000AF08AF9201CFEF7D1FDFA20800009F015
:107C60007BFD381C8349002202F002FE381C0021F3
:107C700002F09EFD7C496E18301C0099FEF785FDD0
:107C8000002808D16A4610745074311C04A8009A68
:107C9000012306F0FBF80023684603744374CA23EB
:107CA0005B00E35C2F2B0ED19623FF33E35C002BAC
:107CB00009D16D496E18301C06F014F8301C291CCF
:107CC00005F0CFFD15E0684A04AEAD18301C291C44
:107CD000009A012306F00DF800280AD032787023AC
:107CE0001A4206D02B1C07CE07C307CE07C307CE08
:107CF00007C3614A0199009B04A805F013FA251CEB
:107D0000049BB835201C2B6005A9BC30FEF764FD30
:107D100012A80278231CF03349211A7069440A78AA
:107D200015A85A70139A149BEA632B640288231CCB
:107D3000BE33DA8706AEF28F0233DA871699179AC6
:107D400084235B00A964EA640199E5184B4A4C4B13
:107D500004A805F0E7F90498842386215B00490014
:107D6000E050601805A9FEF737FD12ABA0201A7885
:107D70004000231849211A70694442200A78FF30D4
:107D800023181A701399149AE9632A6415AB872093
:107D90001A8840002318DA878821F28F4900631877
:107DA000DA87169A179B261C2021AA64EB64281CEC
:107DB000344A0523383605F0D1F9301C07F07EFC33
:107DC000281C012105F04EFC002802D0301C07F0D1
:107DD000DFFC0021281C05F045FCC1B2301C07F077
:107DE000F5FC0321281C05F03DFC05F0DDF804211D
:107DF000281C05F037FC244B195C029800F0B2F9FE
:107E0000019805F0CBF8214B1B78D80705D5201C2D
:107E1000FFF774FC201CFFF7D3FC201CFEF703FDCA
:107E2000381C02F0F5FD19B0F0BD381C00221849CD
:107E300002F01EFD381C17490AF096F8201CFEF7C8
:107E4000DDFC0EE70010004090720100141C0020C1
:107E5000A41E0020B074010068CC0000A2720100D2
:107E6000A01700206C0400003C040000E4D80000CF
:107E7000CA720100FFFF0000AE720100B77201007C
:107E8000C572010064170020187201003804004018
:107E900068860000D27201000A4B1A68002A0CD1D1
:107EA000EFF310800021084A884205D172B6BFF373
:107EB0005F8F06480170012111701A6801321A6043
:107EC0007047C046B81D0020BC1D00204C0100209A
:107ED000084B1A68013A1A601B68002B09D1064B3F
:107EE0001B78002B05D0054B01221A70BFF35F8F62
:107EF00062B67047B81D0020BC1D00204C01002058
:107F000010B5041C8068002801D00EF0D9FA0620B4
:107F10002056002802DB002109F00AFF201C10BDBA
:107F200010B5041C06202056002807DB012109F0AB
:107F3000FFFE06202056002109F054FF0123637044
:107F400010BD70B5041C80680E1C002801D00EF016
:107F5000B7FA237BE57BED1A6B1E9D410335754314
:107F6000ADB2A580281C0EF0A1FAA060002805D0B3
:107F700000212A1C0EF0C6FA668001E0A080608015
:107F800070BD037B70B5C57B8C11ED1A6B425D41F2
:107F90000A1103238E101E401C401A400B404673EA
:107FA0008373FF2600238E425B4103708368EDB22A
:107FB000C4730273002B07D0A21A53425341AB4241
:107FC00002D04188FFF7BDFF70BD0000F8B583689F
:107FD000041C002B00D168E009F08CFB2369C01A57
:107FE0003128F9D972B60623E35618275F432F4D7F
:107FF0000121EB195B68A6889940A3687D5D9E19F5
:108000005A1C18782A4BED01EF182A4BED188023E3
:108010003960C046C046C046C046C046C046C0469D
:10802000C046184215D0C046C046C046C046C046ED
:10803000C046C046C046C046C046C046C046C04610
:10804000C046C046C046C046C046C046C04629607D
:1080500014E02960C046C046C046C046C046C0467F
:10806000C046C046C046C046C046C046C046C046E0
:10807000C046C046C046C046C046C0465B0809D0A0
:10808000C046C046C046C046C046C046C046C046C0
:10809000C046BDE762B672B6B24202D21078013273
:1080A000B5E762B609F026FB2061F8BDD87B010078
:1080B000184400411444004138B54378041C0D1C99
:1080C000002B06D006202056002802DB002109F0F4
:1080D0002FFE6378A571002B07D0281C012109F021
:1080E00027FE281C002109F07DFE38BD70B5041C58
:1080F00000200E1C6070191CE071A0602061201C23
:10810000151CFFF73EFF311C201CFFF71AFF201C37
:10811000291CFFF7D1FF201C70BDF0B505AC2578F8
:1081200044888C421BD9C479002C05D06243634338
:108130006543120A1B0A2D0AC47B077B8668A74287
:1081400003D103246143711803E0890071180026EC
:108150000E55047B0A55427B8B54837BCD54F0BD76
:108160004088704770B50B1C4D1CC179EDB2041CE2
:108170008D421BD001398668C9B20020814208D0E7
:10818000FF2B01D10A4801E0280201380BF032FB35
:1081900080B2331C9A1BA18892B2914205D91A78F9
:1081A000424312121A700133F4E7E57170BDC04604
:1081B000FFFF0000C0790138C0B2704708B5002148
:1081C000828880680EF09EF908BD10B5041C00F08E
:1081D000B5F8201C10BD417070478170704708B51C
:1081E000011C303000F0B2F808BDF7B508AC2678B5
:1081F00009AC2478A4460AAC247800940124A64251
:1082000004D00425022E02D0251C00E002250472B1
:108210000024071C447284728473C47344618461B3
:10822000C461009C08370197447367466446C67270
:1082300007730382002C02D01C1C6C436118009F42
:108240004161002F01D05D43AA188261019920305D
:1082500000F07CF9F7BD08B5011C2031303000F08A
:10826000C9F908BD08B5303000F008F908BD08B5F7
:10827000303000F029F908BD920080184163704742
:10828000012330308B40191C037C044A0B430374D8
:108290000378D05C0143D1547047C046241E0020AF
:1082A00038B5FFF7F9FD1F4B1F4A198C0F231940F2
:1082B000890088581D4C02781D4D13401D4A1370CB
:1082C00002781D4B1201A418AA18197864885288E4
:1082D000C9B2A21A42610C1C0122144007D01A70C4
:1082E00010234374037C134218D0436813E0022226
:1082F000114206D01A70037C447413420ED0836876
:1083000009E00422114209D01A7006234374037C49
:10831000134203D0C368002B00D09847FFF7D8FD65
:1083200038BDC04600480041101E00200027002034
:10833000C01D00203F4800414E4800410023032259
:10834000037043708270C37003717047F8B5041CEA
:108350000D1CFFF7A1FD404F3B78002B16D13F4B82
:1083600020215A690A435A61DA6910210A43DA6105
:108370003B4B02211A888A433A491A8001221A800B
:10838000596339499963394919803A70FFF784FD77
:108390007B6800260122134209D17B68111CB14081
:1083A0000B437B603B7A013B3B72171C05E00136B7
:1083B000F6B25B08052EEDD10027FFF789FD002FEF
:1083C00001D0FF2E03D1FFF783FD142042E00F27D9
:1083D000331C27493B4026700B70264B02211A782C
:1083E0001F4E8A431A7001221A70FFF755FD237839
:1083F00001211F401E4B1F702278336991408B432F
:1084000033616A78FC2312029B0113402A786021B1
:1084100052010A40A9781343C022890512040A4078
:108420001343EA78002A04D007210A4008210A43AE
:1084300013432A79002A01D0102213437364FFF7F3
:1084400047FD227800250C4B9200A561D450FFF720
:108450003FFD281CF8BDC04650010020000400402C
:108460000048004100270020C01D0020020F00002E
:108470003F48004140480041101E002038B5051C0F
:10848000FFF70AFD6C7CE4B2052C14D00C4B2A7863
:10849000012158689140084203D1FFF719FD1F24BC
:1084A0000BE0586892008843197A586001311972BC
:1084B000044B0024D450FFF70BFD201C38BDC046F0
:1084C00050010020101E002038B5041CFFF7E4FC0A
:1084D000657CEDB2052D02D1FFF7FAFC28E0A26918
:1084E0005388002B03D1FFF7F3FC172520E0114B35
:1084F00040221A6022780F231A400F4B00251A7071
:1085000023780E4AD25C07231A400D4B1A7020784C
:10851000052363740B4B0001C018A16910220DF0F4
:10852000E8FF094B02211A780A431A70FFF7D0FCC2
:10853000281C38BD00E100E03F480041241E002017
:108540004D4800410027002040480041028870B596
:108550000C7801231C409A43224302804D78048802
:108560000322154006269D40B4432C4304808D7899
:108570000488182615409540B4432C430480CC78D9
:10858000058822401402174A2A40224302800C79AF
:108590000588154A1C40A4022A40224302804C79D7
:1085A0000588124A1C402A40E402224302808A794C
:1085B000048813401A030E4B234013430380CA79E7
:1085C00007231A4003885203DB04DB0C13430380A8
:1085D0000B894380CB6843600B6983604B69C36040
:1085E00070BDC046FFFCFFFFFFFBFFFFFFF7FFFF73
:1085F000FFEFFFFF021C8369407CC0B205280AD050
:10860000002B02D19161181C05E0D868002801D028
:10861000DB68FAE7D960704708B5024B1B689847DA
:1086200008BDC046F43F000008B5064B1A68064B6B
:108630009A4202D8FFF7F0FF03E0044B081C1B68C6
:10864000984708BDFC3F000001000100E83F000022
:1086500008B502480121FFF7E7FF08BD6D1D0020A6
:1086600008B502480221FFF7DFFF08BD6D1D00209D
:1086700008B5064807F09AF91920012109F058FBBE
:108680001920012109F0AEFB08BDC04610200020D2
:1086900073B50024061C6846447104711A49019A96
:1086A0001A48009107F0AAF91920211C09F09AFB39
:1086B0001023013BFDD1154C0121201C07F0D4F9FA
:1086C0000121051C192009F08DFB201C07F0B2F9CF
:1086D000331C0022291C1141C80705D419880C48F5
:1086E00081420CD8013109E01988002907D00948D6
:1086F000814201D1002101E001214942198001326A
:108700000233082AE6D173BD001BB70010200020F9
:10871000FCFF0000FFFF00004900085A01384342F7
:108720005841C0B2704700004900034B085AC018B6
:1087300043425841C0B270470100FFFF4900085A48
:108740000132801A43425841C0B2704708B549000F
:10875000012A07D8435A0B4A013B9BB200209A4298
:1087600040410AE0405A084B984208D0111C0BF0D7
:1087700037F888B2013843425841C0B200E00020C7
:1087800008BDC046FDFF0000FFFF0000014B0122B5
:108790001A707047341E0020F8B50F1C161C80217B
:1087A000A022041C1D1C02F0A1F8074B0122083373
:1087B00023600023A762E6622565201C2375A2754D
:1087C00063632363F8BDC046C0750100F8B5837DBF
:1087D000002B03D00E4807F047F918E0C3690824BE
:1087E00080258269866B1768294201D03E4301E0EB
:1087F000B7433E1C16601A68C66B013C32431A60D0
:108800001A68C66B6D08B2431A60002CE9D1F8BD36
:1088100010200020F0B5164C85B00F1C201C0A213A
:10882000151CFFF7D8FC201C0221FFF7D6FC201CEA
:10883000FFF7D5FC00266B000125391C201C0D4AD2
:10884000009601950296FFF7D0FC201CFFF703FD70
:10885000094B2A1C201C09491E70FFF70DFD201C26
:10886000291CFFF70DFD201CFFF701FD05B0F0BD31
:10887000401E002028180042341E00208D87000072
:10888000436A416C1A680A431A60036A016C1A68E9
:108890008A431A607047436A416C1A688A431A60B7
:1088A000036A016C1A688A431A607047036A026C93
:1088B00019680A431A60704770B50B4B0B4D041CC6
:1088C0000E1C281C06CB07F099F8201CFFF7E3FFCD
:1088D000311C201CFFF77AFF201CFFF7E7FF281C44
:1088E00007F0A8F870BDC0462C1E00201020002004
:1088F00008B54B424B412121C91AFFF7DDFF08BDE6
:1089000070B50B4B0B4D041C0E1C281C06CB07F03E
:1089100075F8201CFFF7B4FF311C201CFFF756FF31
:10892000201CFFF7C3FF281C07F084F870BDC04669
:108930002C1E002010200020F7B50D78061C4C1CC2
:10894000002D27D02178301CFFF7B6FF62787F23F7
:10895000111CA71C99431A40009101923C1C019ADA
:10896000BB18D9B2E2B2914205D02178301CFFF792
:10897000C7FF0134F3E700991C1C002907D01878C1
:108980005C1CFF2801D1FA20400008F0E5FE013D03
:10899000EDB2D5E7F7BD0000F7B50027041C019143
:1089A000C76487640121C06A09F0C2F9A06A012185
:1089B00009F0BEF9A06A182242433F4D3F49535780
:1089C000E06ADB015B1823621823434359573B4895
:1089D000C901AA185268091801266162311C914028
:1089E0002164EB185B68321C9A40A37D6264BB4231
:1089F00008D0334806F0DAFF324B334A1F711A6051
:108A00005F712DE0311C606B09F092F9311C206B15
:108A100009F08EF9676B18237B439C465B572B4804
:108A20002649DB011A185B18E361236B18205843B1
:108A300047572649FF017B1820497F18A7616746E1
:108A4000E9194968371C8F40E7632D18686886402C
:108A5000A6631069B84310611A69A06B82431A615A
:108A6000236A216C1A688A431A60206D00281AD084
:108A7000012109F05DF90121206D09F0B3F9FA2017
:108A8000400008F069FE0021206D09F0ABF9FA20E2
:108A9000400008F061FE206D012109F0A3F9FA20E1
:108AA000400008F059FE019F002F03D0201C391C04
:108AB000FFF742FFF7BDC046D87B010010440041DC
:108AC000102000202C1E002000366E0100440041C2
:108AD00038B50D1C1749041CFFF75EFF002D07D1A8
:108AE000201C1549FFF728FF0223A36401230AE095
:108AF000012D0AD180236382201C1049FFF71CFF3F
:108B00000223A3640323E36403E0201C0C49FFF762
:108B100013FF201C0B49FFF70FFF022D07D1201C6C
:108B20003621FFF7C9FE201CC021FFF7E9FE65755D
:108B300038BDC04610760100A37501004B760100D8
:108B4000B075010078750100F7B51E1C08AB1B78E5
:108B5000041C0F1C2A210193151CFFF7ADFE201CDD
:108B60000021FFF7CDFEA26C201CBF18F9B2FFF761
:108B7000C7FE201C0021FFF7C3FEA36C201CF618C3
:108B8000F1B2FFF7BDFE201C2B21FFF795FE201C44
:108B90000021FFF7B5FEE26C201CAD18E9B2FFF72B
:108BA000AFFE201C0021FFF7ABFE019BE26C201CF6
:108BB0009918C9B2FFF7A4FE201C2C21FFF77CFEF8
:108BC000F7BD0000F0B589B004AFF860388D0D1C1A
:108BD000161C36498022440092023B608A61221CA6
:108BE0000832D208D2006B469B1A9D467C6004ACCA
:108BF000BC60002291B2814208D23B6851005C5AAD
:108C0000013264BA231CBC686352F3E7E9B24B1E1D
:108C1000F2B21818C3B2501CC0B20090F868FFF747
:108C200093FF234C0A21201CFFF7D5FA0221201CB8
:108C3000FFF7D3FA01250026201CFFF7D0FA019593
:108C4000009602967B68B9681A4A201CFFF7CDFA95
:108C5000201CFFF700FB184A201C167017492A1C1D
:108C6000FFF70AFB291C201CFFF70AFB144D154BCC
:108C7000281C06CB06F0C2FEF868FFF701FE201C98
:108C8000FFF7F5FA0C4A1378002BFCD0F868FFF7D1
:108C90000DFE281C06F0CEFE201CFFF7E3FA034C65
:108CA00080239B02BD46636105B0F0BD00440041D6
:108CB000401E002028180042341E00208D8700002E
:108CC000102000202C1E002073B5041C00292CDB72
:108CD0001020235E8B4228DD002A26DB1220235E33
:108CE000934222DDD2B2C9B2501C4B1CC0B2DBB2DF
:108CF0000090201CFFF728FF0C4D0D4B281C06CBC5
:108D000006F07CFE201CFFF7BBFD0A4E201C3188BC
:108D1000090AFFF75BFD3178201CFFF757FD201C87
:108D2000FFF7C4FD281C06F085FE73BD102000204F
:108D30002C1E0020A81E0020F0B5041C1D1C1020B5
:108D4000235E85B08B4232DD638A18B282422EDA0E
:108D50005619864201DD9D1A2DB2D2B2CBB2511EF8
:108D60004919C9B20091201C191CFFF7EDFE114BE7
:108D7000114E1F88301C3B0A0393104BFFB206CBE9
:108D800006F03CFE201CFFF77BFDADB2201C002D41
:108D900008D00399FFF71AFD201C391CFFF716FDB8
:108DA000013DF2E7FFF782FD301C06F043FE05B0FF
:108DB000F0BDC046A81E0020102000202C1E002060
:108DC000F0B51D1C038A041C18B285B0814231DA4B
:108DD0001227E65F96422DDD4E19864201DD5D1AAF
:108DE0002DB2C9B24B1ED2B25B19DBB20092201C6D
:108DF000FFF7AAFE104B114E1F88301C3B0A03934D
:108E00000F4BFFB206CB06F0F9FD201CFFF738FD33
:108E1000ADB2201C002D08D00399FFF7D7FC201C11
:108E2000391CFFF7D3FC013DF2E7FFF73FFD301C93
:108E300006F000FE05B0F0BDA81E002010200020A6
:108E40002C1E0020F0B587B0041C03930CAB00204F
:108E50001E5E208A05B2A94246DA638A9C461BB28E
:108E60009A4241DA039FCF19AF4202DD401A05B2A0
:108E700003959019984202DD6746BE1A36B2D2B207
:108E8000C9B2501E039D4B1E8019C0B25B19DBB2E4
:108E90000090201CFFF758FE144B1B881F0ADBB202
:108EA00004970593124F134B381C06CB06F0A6FD12
:108EB000201CFFF7E5FC002E10DD039D002D0ADDD0
:108EC000201C0499FFF782FC013D201C0599FFF747
:108ED0007DFC2DB2F2E7013E36B2ECE7201CFFF735
:108EE000E5FC381C06F0A6FD07B0F0BDA81E00206A
:108EF000102000202C1E0020F7B5061C90B25A430B
:108F0000D3179B0F9A18921052001B4B44008918DC
:108F1000A4B201948C461C688108331C002290B2D4
:108F2000884221D2500067463D5A0F202F1107403A
:108F30007F003F5B01327FBA1F805F802F1C07409C
:108F40007F003F5B7FBA9F80DF802F0B2D12284070
:108F50007F0040003F5B005B7FBA40BA1F815F81AA
:108F60009881D8811033DAE7019B311C1AB2520084
:108F7000B0180DF0BEFAF7BD5C01002038B50D1C2D
:108F80003621041CFFF798FC194B03212940197066
:108F9000637D201C02290DD0032918D0012904D09B
:108FA000C021022B0AD0C82108E0A021022B12D038
:108FB000A82110E00021022B00D00821FFF7A0FC1F
:108FC000627D80232382012A0FD0A0230DE060213F
:108FD000022B00D06821FFF793FC627D8023012AD9
:108FE00001D1238201E0A0222282638238BDC046E3
:108FF0009C1E002008B50548FFF7E7F8044B054A1A
:109000001A6000225A711A7108BDC046401E002025
:109010002C1E002000093D00F0B58FB002AF1E1CD1
:10902000F862181C151CB96202F0B6FB348A728A09
:10903000002C00D1C2E0002A00D1BFE0B37A012B9E
:1090400000D0B5E0F96A1023C95E23B239629942B3
:1090500000D0ADE0F96A1223CB5E11B279618B4288
:1090600000D0A5E06D463D613D6A69466B0008335E
:10907000DB08DB00C91A8D46C91A02AD013A8D46DC
:10908000BD62D2B202AD0021FD61631E0092DBB26F
:10909000F86A0A1CFFF758FD4A4B4B4806CB06F00E
:1090A000ADFCF86AFFF7ECFBA4B2484B7C620024ED
:1090B0001A6871690094B86A7B6A00F0E9FC3D6A3D
:1090C000AC4208DABD6A6300EB181A88013452BA60
:1090D0001A80A4B2F3E77C6A0125A408FC607D60D5
:1090E0007D687C69A5424EDA394980239B028B61F9
:1090F000B96A7A6AF86AFFF78DFB3B6A7C68756922
:109100006343DA17920FD3189B105B00EB18BB6117
:109110002E4B00221968FB69FD6890B2A8421ED24E
:10912000BC695000205A0F2405112540BD606D0018
:109130006D5A01326DBA1D80251C05406D006D5AB7
:109140006DBA5D80050B001220406D0040006D5A25
:10915000405A6DBA40BA9D80D8800833DCE780233E
:109160001B499B024B611B4B1B78002BFBD01A4801
:10917000FFF778F87B68FC6901339BB27B60BB6AC0
:10918000BC62FB61ACE7F86AB96A7A6AFFF742FB36
:10919000104B1B78002BFBD00F48FFF763F8F86AE1
:1091A000FFF784FB084806F045FC3D69AD4605E045
:1091B000F86AB96A2A1C331C00F086FCBD460DB063
:1091C000F0BDC0462C1E0020102000205C010020B5
:1091D00000440041341E0020401E0020F0B58BB03A
:1091E00002AFB961FA603C22B95E041C38203D5ED2
:1091F000181C1E1CF96102F0CFFA238AB96918B253
:10920000B860814200DD4FE1E8172A184240D142A0
:1092100000D549E1628AF86811B27961884200DDBF
:1092200042E1F969C81709184140F868C84200D5F9
:109230003AE1002D00D137E1F969002900D133E18D
:10924000308A718A002800D12EE1002900D12BE15B
:1092500000B23861A8420CD108B28446F86984454E
:1092600007D12368201C5D6BB969FA68331CA847D5
:109270001AE138694000854200D00CE108B27860FC
:109280004100F869884200D005E1B968A94200D0E0
:1092900001E17969814200D0FDE0B07A786100286F
:1092A00000D090E068463969386038698900F96013
:1092B000C10008316846401A854602A8F861684630
:1092C000401A8546013A02A9D2B2B9610092796981
:1092D000013BDBB2201C0A1CFFF736FC744B7548BF
:1092E00006CB06F08BFB201CFFF7CAFA7D693A69B2
:1092F00095420BDA70696A00125AF869AB0052BAEB
:10930000C11801354A80ADB2C252F0E7BB68F969B5
:109310005B00C818FA687B610DF0EBF801257A68EC
:10932000954239DA644A80239B029361228A201C89
:10933000520092B2F969FFF76DFA3B696B43BB606B
:10934000002339698B420EDAB8689A00C118706937
:109350004900095AB86949BA80184180B86901338F
:1093600081529BB2EDE7BA697B69111CD018FA688B
:109370000DF0BFF8802350489B0243614F4B1B7890
:10938000002BFBD04E48FEF76DFFFB69B969013534
:10939000ADB2F961BB61C2E7228A201C520092B2D1
:1093A000F969FFF737FA454B1B78002BFBD044488F
:1093B000FEF758FF201CFFF779FA3E4806F03AFB0B
:1093C0003B689D4670E07869012864D16846F86082
:1093D0003869013AC10008316846401A854602A83A
:1093E000F8616846401A854602A9B961D2B20021E7
:1093F000013BDBB20092201C0A1CFFF7A5FB2C4BA3
:109400002C4806CB06F0FAFA201CFFF739FAF86967
:1094100071693A690023FFF76FFD7D697B689D42A2
:1094200022DA254B802292029A61228A201C520065
:1094300092B2F969FFF7EEF9B86971693A692B1CC4
:10944000FFF75AFD80201C49800248611B4B1B78A6
:10945000002BFBD01A48FEF705FFFB69BA690135FE
:10946000ADB2FA61BB61D9E7228A201C520092B2E8
:10947000F969FFF7CFF9114B1B78002BFBD010488F
:10948000FEF7F0FE201CFFF711FA0A4806F0D2FAA8
:10949000F868854608E00095F969201C0191B969D2
:1094A000FA68331C00F04AF9BD4609B0F0BDC04669
:1094B0002C1E00201020002000440041341E0020FB
:1094C000401E0020014B08330360704710790100F3
:1094D000F7B51F1C08AB151C0E1C0022995E036813
:1094E0000191196A041C2A1C8C463B1C311CE04764
:1094F0002368019A196A013A52198C46201C311CC2
:109500003B1C12B2E0472368201CDA69311C9446E8
:10951000019B2A1CE047013F2368BE1931B2DF6975
:109520002A1C201C019BB847F7BD37B5013B9B188F
:109530000C1C1BB2016800938D69231C211CA847D9
:1095400037BD13B5013B04685B1800921BB2A469D8
:10955000A04713BDF7B5009308AB0D1C171C0022E4
:10956000995E061C01912C1C009AAB189C420ADAE9
:109570003368301CD9693A1C8C46019B211C01348C
:10958000E04724B2F0E7F7BD13B51021435E122483
:10959000015F026800910021946A0A1CA04713BD74
:1095A000F0B5584A87B012680B1C002A4BD10A2923
:1095B00017D1554B554D1978554B2D781B7859437C
:1095C000544B1C880C19A4B21C80002D06D024B268
:1095D00061181224005F814200DB1A8000224E4B8A
:1095E0003DE00D2900D18AE04849474C0978494EB1
:1095F000002916D02778484D05970027E95F474F87
:109600008C463F7805994F43BC441021475EBC45CA
:1096100007DD2A803E4A059912785143328889181D
:1096200031803D4D0022A95E0027F25F267800962A
:1096300007687E6CB047394B1A78237853432A88E1
:109640009B182B805BE00A290BD1334B002119803A
:10965000917A2D4A2F4B12784A43198852181A8052
:109660004DE00D294BD0157AA94248D3517A994241
:1096700045D35D1B5168EDB2ED006D18AC78E9780B
:109680000494049F204E244C002F32D0002930D067
:1096900069798C461D49097800291CD037780397D1
:1096A0000027E15F0591614649B28C4604990F1C81
:1096B000039967444F430599C9198C461021475EA9
:1096C000BC4508DB927A0399002751432780114F4C
:1096D0003A88891839800F4F0022A15E3A1C002772
:1096E000D25F37780592009707687A6C9446059A9E
:1096F000E0472A793378534322889B18238001203E
:1097000007B0F0BDA01E0020A41E00208301002091
:10971000A51E0020941E0020AC1E0020901E0020DC
:109720007047000010B5044B041C0833036008F0B8
:109730006BFF201C10BDC04610790100F0B59BB036
:1097400002AFB8657820F965C65F7C21181C7A6580
:109750001C1CCD5F02F020F8BA6DFB6D128A10B2AE
:109760007A64834200DD8DE1F11772184A40D342DA
:1097700000D587E1BB6D5B8A19B29C467B6D39656C
:109780008B4200DD7EE1E9176B184B40796DD942C1
:1097900000D577E1002E00D174E1002D00D171E1F8
:1097A000218A3962618A7963396A09B2B964B1423E
:1097B0000CD1796B09B2A94208D1BD6DB86D2B6887
:1097C000F96D5D6B7A6D231CA8475BE1F60FFE60B7
:1097D00016B2ED0FFE63FE6DBD601DB2FD62002E80
:1097E00007DAB1B24842891880B20DB23864FD641C
:1097F0000CE0FE6DFD6B7219824203DD786C811BFB
:109800000DB200E0FD6B0026FD643E647D6D002D11
:1098100007DAAAB25142D31889B21EB239653E6343
:109820000DE07D6DFE6A386DAB19834203DD614644
:109830004B1B1DB200E0FD6A00263D633E65BD6D19
:10984000AB7A002B00D091E0FE6B6D4673000833BD
:10985000DB08DB00E81A85462689A37ABD6202ADE3
:10986000BD637E62012B08D1627A002A04D0874B47
:10987000227A1B685200D35A2381BB6C0025013326
:10988000DA0FD3185B10BB617D647D6C3E6B2BB22D
:10989000B34267DA3D6D7E6B28B21B1832B2181CDA
:1098A0005043F96A09F0A6FFBE6880B2002E03D0CB
:1098B0007B6B013B181A80B2BE69BD6C46434543C1
:1098C000724B7E611B68BE6BFD613B610025F86CCD
:1098D0002BB283422EDA396CBA6C08B22818504386
:1098E000F96B09F087FFFB6880B2002B03D03B6A5D
:1098F000013B181A80B2A17A3960002905D1FA69B2
:10990000616910184000435A10E03A68012A0ED1EC
:1099100061697A6943088918CB5C3968084200D1CB
:109920001B090F2213403A695B009B5A33800135B3
:109930000236CCE77E6CF86DB5B2BE6D33683E6C16
:1099400031183E6D786D09B23218FE6CAA18B0B2AB
:10995000009001945E6912B2B86DBB6B0135B047DF
:10996000ADB291E77D6A2581BE6A08E0012B00D087
:1099700088E0A37A6D46FD61002B02D1FE69B546F1
:1099800080E0FB6B3E6C0833DB08DB00E81A8546A1
:1099900002ADBD62BB6CBD6C36B201337543DA0FEC
:1099A000D3185B107E620026BB613D617E647D6CD6
:1099B0003E6B2BB2B342E1DA3E6D7D6B30B21B18C9
:1099C0002AB2181C5043F96A09F014FFBD6880B22E
:1099D000002D03D07B6B013B181A80B2BE693D6934
:1099E0004643BD63BD6A7E610026F86C33B2834294
:1099F0002FDAF96BB86B09F0FDFEF96880B2002927
:109A000003D03B6A013B181A80B242086369796946
:109A100094465A186346D25CC10700D41209786A8A
:109A20000F238446F86D1A408444B4446046297874
:109A3000C00704D599430A432A70013503E0120197
:109A40000B4013432B70B96BBA6C01368918B9639C
:109A5000CBE77E6CF86DB5B2BE6D33683E6C3118E5
:109A60003E6D786D09B23218FE6CAA18B0B2009043
:109A7000019401355E6912B2B86DBB6AADB2B047F0
:109A80007D6494E7BD4619B0F0BDC0465C0100207E
:109A900070B504AC25785B004C1C0978C31898425B
:109AA00011D0002D07D00F2631404900895A01807E
:109AB0002178013403E00E117600B65A06800126A3
:109AC00075400230EBE770BDF0B593B002AF1E1CDD
:109AD0007863181CB9623A6301F05EFE748A7D6B8C
